:100000000C9461000C9473000C9473000C947300B6
:100010000C9473000C9473000C9473000C94730094
:100020000C9473000C9473000C9473000C94730084
:100030000C9473000C9473000C9473000C94730074
:100040000C944B010C9473000C9473000C9473008B
:100050000C9473000C9473000C9473000C94730054
:100060000C9473000C94730000000000240027001F
:100070002A0000000000250028002B0000000000DE
:1000800023002600290004040404040404040202DA
:100090000202020203030303030301020408102007
:1000A0004080010204081020010204081020000012
:1000B0000008000201000003040700000000000027
:1000C000000011241FBECFEFD8E0DEBFCDBF21E07E
:1000D000A0E0B1E001C01D92A930B207E1F70E9493
:1000E00095010C94B3020C940000833081F028F445
:1000F000813099F08230A9F008958730A9F08830D6
:10010000C9F08430B1F4809180008F7D03C080916C
:1001100080008F7780938000089584B58F7784BDA9
:10012000089584B58F7DFBCF8091B0008F77809349
:10013000B00008958091B0008F7DF9CFCF93DF9309
:10014000282F30E0F901E255FF4F8491F901E6567E
:10015000FF4FD491F901EA57FF4FC491CC23A1F08E
:1001600081110E947500EC2FF0E0EE0FFF1FE458A4
:10017000FF4FA591B491EC91ED2381E090E009F45B
:1001800080E0DF91CF91089580E090E0FACF1F9357
:10019000CF93DF93282F30E0F901E255FF4F849190
:1001A000F901E656FF4FD491F901EA57FF4FC49188
:1001B000CC23A9F0162F81110E947500EC2FF0E0DE
:1001C000EE0FFF1FEE58FF4FA591B4918FB7F89433
:1001D000EC91111108C0D095DE23DC938FBFDF9125
:1001E000CF911F910895DE2BF8CFCF93DF9390E04E
:1001F000FC01E656FF4F24918A579F4FFC018491E2
:100200008823D1F090E0880F991FFC01E859FF4F37
:10021000A591B491FC01EE58FF4FC591D491623085
:1002200071F49FB7F8943C91822F809583238C932F
:10023000E8812E2B28839FBFDF91CF9108958FB740
:10024000F894EC912E2B2C938FBFF6CF3FB7F894F8
:100250008091050190910601A0910701B0910801DC
:1002600026B5A89B05C02F3F19F00196A11DB11D11
:100270003FBFBA2FA92F982F8827BC01CD01620F4D
:10028000711D811D911D42E0660F771F881F991F08
:100290004A95D1F708951F920F920FB60F9211242D
:1002A0002F933F938F939F93AF93BF9380910101BF
:1002B00090910201A0910301B091040130910001DD
:1002C00023E0230F2D3758F50196A11DB11D209372
:1002D00000018093010190930201A0930301B09368
:1002E00004018091050190910601A0910701B09150
:1002F00008010196A11DB11D80930501909306018F
:10030000A0930701B0930801BF91AF919F918F9186
:100310003F912F910F900FBE0F901F90189526E8D8
:10032000230F0296A11DB11DD2CF789484B58260AF
:1003300084BD84B5816084BD85B5826085BD85B589
:10034000816085BD80916E00816080936E00109207
:100350008100809181008260809381008091810082
:100360008160809381008091800081608093800013
:100370008091B10084608093B1008091B000816071
:100380008093B00080917A00846080937A0080919D
:100390007A00826080937A0080917A0081608093F5
:1003A0007A0080917A00806880937A001092C10070
:1003B00061E086E00E94F50061E087E00E94F500C0
:1003C00061E088E00E94F50062E08DE00E94F500A7
:1003D00061E088E00E94C70060E086E00E94C700FC
:1003E00060E087E00E94C700C0E0D0E08DE00E949E
:1003F0009E00892B09F0AAC00E9426016B017C0196
:100400004FE0842E912CA12CB12C0E9426016C1956
:100410007D098E099F09683E734081059105A8F307
:1004200021E0821A9108A108B10888EEC80E83E085
:10043000D81EE11CF11C81149104A104B10429F718
:100440008DE00E949E00892B09F07AC060E088E070
:100450000E94C70061E087E00E94C70060E086E07C
:100460000E94C70030E4C32E3DE0D32E33E0E32EDC
:10047000F12C8DE00E949E00019709F461C081E09B
:10048000C81AD108E108F108A1F760E088E00E94ED
:10049000C70060E087E00E94C70061E086E00E943C
:1004A000C70020ECC22E27E2D22E29E0E22EF12C4A
:1004B0008DE00E949E00019709F442C021E0C21A1B
:1004C000D108E108F108A1F760E088E00E94C700C8
:1004D00061E087E00E94C70061E086E00E94C700FB
:1004E00090E4C92E9DE0D92E93E0E92EF12C8DE009
:1004F0000E949E00019721F181E0C81AD108E1080D
:10050000F108A9F760E087E00E94C70060E086E09C
:100510000E94C70061E088E00E94C70080ECC82EFE
:1005200087E2D82E89E0E82EF12C8DE00E949E0013
:10053000019731F021E0C21AD108E108F108A9F7CA
:10054000209709F453CF0E94000050CF61E088E06B
:100550000E94C70060E086E00E94C70060E087E07C
:0A0560000E94C700EDCFF894FFCF12
:00000001FF
